{
  "contractName": "CryptoDoggys",
  "abi": [
    {
      "anonymous": false,
      "inputs": [
        {
          "indexed": true,
          "internalType": "address",
          "name": "owner",
          "type": "address"
        },
        {
          "indexed": true,
          "internalType": "address",
          "name": "approved",
          "type": "address"
        },
        {
          "indexed": true,
          "internalType": "uint256",
          "name": "tokenId",
          "type": "uint256"
        }
      ],
      "name": "Approval",
      "type": "event"
    },
    {
      "anonymous": false,
      "inputs": [
        {
          "indexed": true,
          "internalType": "address",
          "name": "from",
          "type": "address"
        },
        {
          "indexed": true,
          "internalType": "address",
          "name": "to",
          "type": "address"
        },
        {
          "indexed": true,
          "internalType": "uint256",
          "name": "tokenId",
          "type": "uint256"
        }
      ],
      "name": "Transfer",
      "type": "event"
    },
    {
      "inputs": [],
      "name": "doggyTokenName",
      "outputs": [
        {
          "internalType": "string",
          "name": "",
          "type": "string"
        }
      ],
      "stateMutability": "view",
      "type": "function",
      "constant": true
    },
    {
      "inputs": [],
      "name": "doggyTokenSymbol",
      "outputs": [
        {
          "internalType": "string",
          "name": "",
          "type": "string"
        }
      ],
      "stateMutability": "view",
      "type": "function",
      "constant": true
    },
    {
      "inputs": [
        {
          "internalType": "uint256",
          "name": "",
          "type": "uint256"
        }
      ],
      "name": "tokenIdOwnerMapping",
      "outputs": [
        {
          "internalType": "address",
          "name": "",
          "type": "address"
        }
      ],
      "stateMutability": "view",
      "type": "function",
      "constant": true
    },
    {
      "inputs": [
        {
          "internalType": "address",
          "name": "owner",
          "type": "address"
        }
      ],
      "name": "balanceOf",
      "outputs": [
        {
          "internalType": "uint256",
          "name": "balance",
          "type": "uint256"
        }
      ],
      "stateMutability": "view",
      "type": "function",
      "constant": true
    },
    {
      "inputs": [],
      "name": "totalSupply",
      "outputs": [
        {
          "internalType": "uint256",
          "name": "total",
          "type": "uint256"
        }
      ],
      "stateMutability": "view",
      "type": "function",
      "constant": true
    },
    {
      "inputs": [],
      "name": "name",
      "outputs": [
        {
          "internalType": "string",
          "name": "tokenName",
          "type": "string"
        }
      ],
      "stateMutability": "pure",
      "type": "function",
      "constant": true
    },
    {
      "inputs": [],
      "name": "symbol",
      "outputs": [
        {
          "internalType": "string",
          "name": "tokenSymbol",
          "type": "string"
        }
      ],
      "stateMutability": "pure",
      "type": "function",
      "constant": true
    },
    {
      "inputs": [
        {
          "internalType": "uint256",
          "name": "tokenId",
          "type": "uint256"
        }
      ],
      "name": "ownerOf",
      "outputs": [
        {
          "internalType": "address",
          "name": "owner",
          "type": "address"
        }
      ],
      "stateMutability": "view",
      "type": "function",
      "constant": true
    },
    {
      "inputs": [
        {
          "internalType": "address",
          "name": "to",
          "type": "address"
        },
        {
          "internalType": "uint256",
          "name": "_tokenId",
          "type": "uint256"
        }
      ],
      "name": "transfer",
      "outputs": [],
      "stateMutability": "nonpayable",
      "type": "function"
    }
  ],
  "bytecode": "0x608060405234801561001057600080fd5b50610af9806100206000396000f3fe608060405234801561001057600080fd5b50600436106100935760003560e01c806370a082311161006657806370a082311461012257806374e5c3a81461015257806395d89b41146101705780639b7505f81461018e578063a9059cbb146101be57610093565b806306fdde031461009857806310370d87146100b657806318160ddd146100d45780636352211e146100f2575b600080fd5b6100a06101da565b6040516100ad9190610756565b60405180910390f35b6100be610217565b6040516100cb9190610756565b60405180910390f35b6100dc610250565b6040516100e99190610791565b60405180910390f35b61010c600480360381019061010791906107dd565b61025c565b604051610119919061084b565b60405180910390f35b61013c60048036038101906101379190610892565b610299565b6040516101499190610791565b60405180910390f35b61015a6102e2565b6040516101679190610756565b60405180910390f35b61017861031b565b6040516101859190610756565b60405180910390f35b6101a860048036038101906101a391906107dd565b610358565b6040516101b5919061084b565b60405180910390f35b6101d860048036038101906101d391906108bf565b61038b565b005b60606040518060400160405280600c81526020017f43727970746f446f676779730000000000000000000000000000000000000000815250905090565b6040518060400160405280600c81526020017f43727970746f446f67677973000000000000000000000000000000000000000081525081565b60008080549050905090565b60006002600083815260200190815260200160002060009054906101000a900473ffffffffffffffffffffffffffffffffffffffff169050919050565b6000600160008373ffffffffffffffffffffffffffffffffffffffff1673ffffffffffffffffffffffffffffffffffffffff168152602001908152602001600020549050919050565b6040518060400160405280600281526020017f434400000000000000000000000000000000000000000000000000000000000081525081565b60606040518060400160405280600281526020017f4344000000000000000000000000000000000000000000000000000000000000815250905090565b60026020528060005260406000206000915054906101000a900473ffffffffffffffffffffffffffffffffffffffff1681565b61039533826104c0565b6103d4576040517f08c379a00000000000000000000000000000000000000000000000000000000081526004016103cb90610971565b60405180910390fd5b600073ffffffffffffffffffffffffffffffffffffffff168273ffffffffffffffffffffffffffffffffffffffff1603610443576040517f08c379a000000000000000000000000000000000000000000000000000000000815260040161043a90610a03565b60405180910390fd5b3073ffffffffffffffffffffffffffffffffffffffff168273ffffffffffffffffffffffffffffffffffffffff16036104b1576040517f08c379a00000000000000000000000000000000000000000000000000000000081526004016104a890610a03565b60405180910390fd5b6104bc33838361052c565b5050565b60008273ffffffffffffffffffffffffffffffffffffffff166002600084815260200190815260200160002060009054906101000a900473ffffffffffffffffffffffffffffffffffffffff1673ffffffffffffffffffffffffffffffffffffffff1614905092915050565b600160008373ffffffffffffffffffffffffffffffffffffffff1673ffffffffffffffffffffffffffffffffffffffff168152602001908152602001600020600081548092919061057c90610a52565b9190505550816002600083815260200190815260200160002060006101000a81548173ffffffffffffffffffffffffffffffffffffffff021916908373ffffffffffffffffffffffffffffffffffffffff160217905550600073ffffffffffffffffffffffffffffffffffffffff168373ffffffffffffffffffffffffffffffffffffffff161461065d57600160008473ffffffffffffffffffffffffffffffffffffffff1673ffffffffffffffffffffffffffffffffffffffff168152602001908152602001600020600081548092919061065790610a9a565b91905055505b808273ffffffffffffffffffffffffffffffffffffffff168473ffffffffffffffffffffffffffffffffffffffff167fddf252ad1be2c89b69c2b068fc378daa952ba7f163c4a11628f55a4df523b3ef60405160405180910390a4505050565b600081519050919050565b600082825260208201905092915050565b60005b838110156106f75780820151818401526020810190506106dc565b83811115610706576000848401525b50505050565b6000601f19601f8301169050919050565b6000610728826106bd565b61073281856106c8565b93506107428185602086016106d9565b61074b8161070c565b840191505092915050565b60006020820190508181036000830152610770818461071d565b905092915050565b6000819050919050565b61078b81610778565b82525050565b60006020820190506107a66000830184610782565b92915050565b600080fd5b6107ba81610778565b81146107c557600080fd5b50565b6000813590506107d7816107b1565b92915050565b6000602082840312156107f3576107f26107ac565b5b6000610801848285016107c8565b91505092915050565b600073ffffffffffffffffffffffffffffffffffffffff82169050919050565b60006108358261080a565b9050919050565b6108458161082a565b82525050565b6000602082019050610860600083018461083c565b92915050565b61086f8161082a565b811461087a57600080fd5b50565b60008135905061088c81610866565b92915050565b6000602082840312156108a8576108a76107ac565b5b60006108b68482850161087d565b91505092915050565b600080604083850312156108d6576108d56107ac565b5b60006108e48582860161087d565b92505060206108f5858286016107c8565b9150509250929050565b7f596f7520617265206e6f7420746865206f776e6572206f66207468697320746f60008201527f6b656e2100000000000000000000000000000000000000000000000000000000602082015250565b600061095b6024836106c8565b9150610966826108ff565b604082019050919050565b6000602082019050818103600083015261098a8161094e565b9050919050565b7f596f752063616e6e6f742073656e6420746f6b656e7320746f2074686973206160008201527f6464726573732100000000000000000000000000000000000000000000000000602082015250565b60006109ed6027836106c8565b91506109f882610991565b604082019050919050565b60006020820190508181036000830152610a1c816109e0565b9050919050565b7f4e487b7100000000000000000000000000000000000000000000000000000000600052601160045260246000fd5b6000610a5d82610778565b91507fffffffffffffffffffffffffffffffffffffffffffffffffffffffffffffffff8203610a8f57610a8e610a23565b5b600182019050919050565b6000610aa582610778565b915060008203610ab857610ab7610a23565b5b60018203905091905056fea264697066735822122030404cf7a364e3dd778d6a26ae0594adf551691f77e410468d0313d9eeed2cd764736f6c634300080d0033",
  "immutableReferences": {},
  "source": "// SPDX-License-Identifier: MIT\r\n\r\npragma solidity ^0.8.13;\r\n\r\nimport \"./IERC721.sol\";\r\n\r\ncontract CryptoDoggys is IERC721 {\r\n    string public constant doggyTokenName = \"CryptoDoggys\";\r\n    string public constant doggyTokenSymbol = \"CD\";\r\n\r\n    struct Doggy {\r\n        uint256 genes;\r\n        uint64 birthTime;\r\n        uint32 mumId;\r\n        uint32 dadId;\r\n        uint16 generation;\r\n    }\r\n\r\n    Doggy[] doggys;\r\n\r\n    mapping(address => uint256) tokenOwnershipCount; //Token owners balance\r\n    mapping(uint256 => address) public tokenIdOwnerMapping; //Maps TokenId to owners address\r\n\r\n\r\n    function balanceOf(address owner) external view returns (uint256 balance){\r\n         return tokenOwnershipCount[owner];\r\n     }\r\n\r\n      function totalSupply() public view returns (uint256 total){\r\n          return doggys.length;\r\n      }\r\n\r\n      function name() external pure returns (string memory tokenName){\r\n          return doggyTokenName;\r\n      }\r\n\r\n    function symbol() external pure returns (string memory tokenSymbol){\r\n        return doggyTokenSymbol;\r\n    }\r\n\r\n     function ownerOf(uint256 tokenId) external view returns (address owner){\r\n        return tokenIdOwnerMapping[tokenId];\r\n     }\r\n\r\n    function transfer(address to, uint256 _tokenId) external {\r\n         require(_owns(msg.sender, _tokenId), \"You are not the owner of this token!\");\r\n         require(to != address(0), \"You cannot send tokens to this address!\");\r\n         require(to != address(this), \"You cannot send tokens to this address!\");\r\n\r\n         _transfer(msg.sender, to, _tokenId);\r\n\r\n         \r\n     }\r\n\r\n     function _transfer(address _from, address _to, uint256 _tokenId) internal {\r\n            tokenOwnershipCount[_to]++;\r\n\r\n            tokenIdOwnerMapping[_tokenId] = _to;\r\n\r\n            if(_from != address(0)){\r\n                tokenOwnershipCount[_from]--;\r\n            }\r\n\r\n            emit Transfer(_from, _to, _tokenId);\r\n     }\r\n\r\n     function _owns(address _claimant, uint256 _tokenId) internal view returns(bool) {\r\n         return tokenIdOwnerMapping[_tokenId] == _claimant;\r\n     }\r\n     \r\n}",
  "sourcePath": "C:\\Users\\antho\\Documents\\code\\practice\\CryptoDoggyFactory\\contracts\\Doggycontract.sol",
  "compiler": {
    "name": "solc",
    "version": "0.8.13+commit.abaa5c0e.Emscripten.clang"
  },
  "schemaVersion": "3.4.7",
  "updatedAt": "2022-06-07T20:57:55.574Z",
  "networkType": "ethereum",
  "devdoc": {
    "kind": "dev",
    "methods": {
      "balanceOf(address)": {
        "details": "Returns the number of tokens in ``owner``'s account."
      },
      "ownerOf(uint256)": {
        "details": "Returns the owner of the `tokenId` token. Requirements: - `tokenId` must exist."
      }
    },
    "version": 1
  },
  "userdoc": {
    "kind": "user",
    "methods": {},
    "version": 1
  }
}